{
  "address": "0xEF2a01820083bC18211314fB143d99806CaB5c0f",
  "abi": [
    {
      "inputs": [
        {
          "internalType": "address",
          "name": "VRFCoordinatorV2",
          "type": "address"
        },
        {
          "internalType": "uint64",
          "name": "subscriptionId",
          "type": "uint64"
        },
        {
          "internalType": "bytes32",
          "name": "gasLane",
          "type": "bytes32"
        },
        {
          "internalType": "uint256",
          "name": "interval",
          "type": "uint256"
        },
        {
          "internalType": "uint256",
          "name": "entranceFee",
          "type": "uint256"
        },
        {
          "internalType": "uint32",
          "name": "callbackGasLimit",
          "type": "uint32"
        }
      ],
      "stateMutability": "nonpayable",
      "type": "constructor"
    },
    {
      "inputs": [],
      "name": "Lotto__NotEnoughEthEntered",
      "type": "error"
    },
    {
      "inputs": [],
      "name": "Lotto__NotOpen",
      "type": "error"
    },
    {
      "inputs": [],
      "name": "Lotto__TransferFailer",
      "type": "error"
    },
    {
      "inputs": [
        {
          "internalType": "uint256",
          "name": "",
          "type": "uint256"
        },
        {
          "internalType": "uint256",
          "name": "",
          "type": "uint256"
        },
        {
          "internalType": "uint256",
          "name": "",
          "type": "uint256"
        }
      ],
      "name": "Lotto__UpkeedNotNeeded",
      "type": "error"
    },
    {
      "inputs": [
        {
          "internalType": "address",
          "name": "have",
          "type": "address"
        },
        {
          "internalType": "address",
          "name": "want",
          "type": "address"
        }
      ],
      "name": "OnlyCoordinatorCanFulfill",
      "type": "error"
    },
    {
      "anonymous": false,
      "inputs": [
        {
          "indexed": true,
          "internalType": "address",
          "name": "player",
          "type": "address"
        }
      ],
      "name": "LottoEnter",
      "type": "event"
    },
    {
      "anonymous": false,
      "inputs": [
        {
          "indexed": true,
          "internalType": "uint256",
          "name": "requestId",
          "type": "uint256"
        }
      ],
      "name": "RequestedLottoWinner",
      "type": "event"
    },
    {
      "anonymous": false,
      "inputs": [
        {
          "indexed": true,
          "internalType": "address",
          "name": "winner",
          "type": "address"
        }
      ],
      "name": "WinnerPicked",
      "type": "event"
    },
    {
      "inputs": [
        {
          "internalType": "bytes",
          "name": "",
          "type": "bytes"
        }
      ],
      "name": "checkUpkeep",
      "outputs": [
        {
          "internalType": "bool",
          "name": "upkeepNeeded",
          "type": "bool"
        },
        {
          "internalType": "bytes",
          "name": "",
          "type": "bytes"
        }
      ],
      "stateMutability": "nonpayable",
      "type": "function"
    },
    {
      "inputs": [],
      "name": "enterLotto",
      "outputs": [],
      "stateMutability": "payable",
      "type": "function"
    },
    {
      "inputs": [],
      "name": "getEntranceFree",
      "outputs": [
        {
          "internalType": "uint256",
          "name": "",
          "type": "uint256"
        }
      ],
      "stateMutability": "view",
      "type": "function"
    },
    {
      "inputs": [],
      "name": "getInterval",
      "outputs": [
        {
          "internalType": "uint256",
          "name": "",
          "type": "uint256"
        }
      ],
      "stateMutability": "view",
      "type": "function"
    },
    {
      "inputs": [],
      "name": "getLatestTimeStamp",
      "outputs": [
        {
          "internalType": "uint256",
          "name": "",
          "type": "uint256"
        }
      ],
      "stateMutability": "view",
      "type": "function"
    },
    {
      "inputs": [],
      "name": "getLottoState",
      "outputs": [
        {
          "internalType": "enum lotto.LottoState",
          "name": "",
          "type": "uint8"
        }
      ],
      "stateMutability": "view",
      "type": "function"
    },
    {
      "inputs": [],
      "name": "getNumWords",
      "outputs": [
        {
          "internalType": "uint256",
          "name": "",
          "type": "uint256"
        }
      ],
      "stateMutability": "pure",
      "type": "function"
    },
    {
      "inputs": [],
      "name": "getNumberOfPlayers",
      "outputs": [
        {
          "internalType": "uint256",
          "name": "",
          "type": "uint256"
        }
      ],
      "stateMutability": "view",
      "type": "function"
    },
    {
      "inputs": [
        {
          "internalType": "uint256",
          "name": "index",
          "type": "uint256"
        }
      ],
      "name": "getPlayer",
      "outputs": [
        {
          "internalType": "address",
          "name": "",
          "type": "address"
        }
      ],
      "stateMutability": "view",
      "type": "function"
    },
    {
      "inputs": [],
      "name": "getRecentWinner",
      "outputs": [
        {
          "internalType": "address",
          "name": "",
          "type": "address"
        }
      ],
      "stateMutability": "view",
      "type": "function"
    },
    {
      "inputs": [],
      "name": "getRequestConfirmations",
      "outputs": [
        {
          "internalType": "uint256",
          "name": "",
          "type": "uint256"
        }
      ],
      "stateMutability": "pure",
      "type": "function"
    },
    {
      "inputs": [
        {
          "internalType": "bytes",
          "name": "",
          "type": "bytes"
        }
      ],
      "name": "performUpkeep",
      "outputs": [],
      "stateMutability": "nonpayable",
      "type": "function"
    },
    {
      "inputs": [
        {
          "internalType": "uint256",
          "name": "requestId",
          "type": "uint256"
        },
        {
          "internalType": "uint256[]",
          "name": "randomWords",
          "type": "uint256[]"
        }
      ],
      "name": "rawFulfillRandomWords",
      "outputs": [],
      "stateMutability": "nonpayable",
      "type": "function"
    }
  ],
  "transactionHash": "0xe78f60fc1e4405855c3208c2e19740eea4d8626c874708a299cf8c7da068d690",
  "args": [
    "0x2Ca8E0C643bDe4C2E08ab1fA0da3401AdAD7734D",
    2608,
    "0x79d3d8832d904592c0bf9818b621522c988bb8b0c05cdc3b15aea1b6e8db0c15",
    "30",
    "10000000000000000",
    "5000000"
  ],
  "numDeployments": 8,
  "solcInputHash": "0a8f5cfb9f2a05727dbe8bbef21f5cc4",
  "bytecode": "0x6101606040523480156200001257600080fd5b506040516200185d3803806200185d8339818101604052810190620000389190620001ad565b858073ffffffffffffffffffffffffffffffffffffffff1660808173ffffffffffffffffffffffffffffffffffffffff1660601b81525050508573ffffffffffffffffffffffffffffffffffffffff166101208173ffffffffffffffffffffffffffffffffffffffff1660601b815250508360c081815250508261014081815250508467ffffffffffffffff1660e08167ffffffffffffffff1660c01b815250508160a081815250506000600260006101000a81548160ff021916908360018111156200010a5762000109620002b5565b5b0217905550426003819055508063ffffffff166101008163ffffffff1660e01b815250505050505050506200036b565b6000815190506200014b81620002e9565b92915050565b600081519050620001628162000303565b92915050565b60008151905062000179816200031d565b92915050565b600081519050620001908162000337565b92915050565b600081519050620001a78162000351565b92915050565b60008060008060008060c08789031215620001cd57620001cc620002e4565b5b6000620001dd89828a016200013a565b9650506020620001f089828a0162000196565b95505060406200020389828a0162000151565b94505060606200021689828a0162000168565b93505060806200022989828a0162000168565b92505060a06200023c89828a016200017f565b9150509295509295509295565b6000620002568262000267565b9050919050565b6000819050919050565b600073ffffffffffffffffffffffffffffffffffffffff82169050919050565b6000819050919050565b600063ffffffff82169050919050565b600067ffffffffffffffff82169050919050565b7f4e487b7100000000000000000000000000000000000000000000000000000000600052602160045260246000fd5b600080fd5b620002f48162000249565b81146200030057600080fd5b50565b6200030e816200025d565b81146200031a57600080fd5b50565b620003288162000287565b81146200033457600080fd5b50565b620003428162000291565b81146200034e57600080fd5b50565b6200035c81620002a1565b81146200036857600080fd5b50565b60805160601c60a05160c05160e05160c01c6101005160e01c6101205160601c61014051611476620003e76000396000818161066b015261083c0152600061048f0152600061050f015260006104ec015260006104cb0152600081816106cb01526108640152600081816102f8015261034c01526114766000f3fe6080604052600436106100c25760003560e01c80635f1b0fd81161007f57806391ad27b41161005957806391ad27b414610238578063c542025014610263578063e55ae4e81461028e578063fd6673f5146102cb576100c2565b80635f1b0fd8146101c55780636e04ff0d146101f057806390b841ec1461022e576100c2565b80631fe543e3146100c75780632aea97fe146100f0578063320229eb1461011b5780634585e33b14610146578063473f1ddc1461016f57806353a2c19a1461019a575b600080fd5b3480156100d357600080fd5b506100ee60048036038101906100e99190610e55565b6102f6565b005b3480156100fc57600080fd5b506101056103b6565b6040516101129190611061565b60405180910390f35b34801561012757600080fd5b506101306103cd565b60405161013d919061107c565b60405180910390f35b34801561015257600080fd5b5061016d60048036038101906101689190610d65565b6103d7565b005b34801561017b57600080fd5b506101846105d7565b6040516101919190610f9a565b60405180910390f35b3480156101a657600080fd5b506101af610600565b6040516101bc919061107c565b60405180910390f35b3480156101d157600080fd5b506101da61060f565b6040516101e7919061107c565b60405180910390f35b3480156101fc57600080fd5b5061021760048036038101906102129190610db2565b61061c565b604051610225929190610fde565b60405180910390f35b6102366106c9565b005b34801561024457600080fd5b5061024d610838565b60405161025a919061107c565b60405180910390f35b34801561026f57600080fd5b50610278610860565b604051610285919061107c565b60405180910390f35b34801561029a57600080fd5b506102b560048036038101906102b09190610dfb565b610888565b6040516102c29190610f9a565b60405180910390f35b3480156102d757600080fd5b506102e06108d0565b6040516102ed919061107c565b60405180910390f35b7f000000000000000000000000000000000000000000000000000000000000000073ffffffffffffffffffffffffffffffffffffffff163373ffffffffffffffffffffffffffffffffffffffff16146103a857337f00000000000000000000000000000000000000000000000000000000000000006040517f1cf993f400000000000000000000000000000000000000000000000000000000815260040161039f929190610fb5565b60405180910390fd5b6103b282826108dd565b5050565b6000600260009054906101000a900460ff16905090565b6000600354905090565b60006103f16040518060200160405280600081525061061c565b509050806104605747600180549050600260009054906101000a900460ff16600181111561042257610421611356565b5b6040517f7585e00c00000000000000000000000000000000000000000000000000000000815260040161045793929190611097565b60405180910390fd5b6001600260006101000a81548160ff0219169083600181111561048657610485611356565b5b021790555060007f000000000000000000000000000000000000000000000000000000000000000073ffffffffffffffffffffffffffffffffffffffff16635d3b1d307f00000000000000000000000000000000000000000000000000000000000000007f000000000000000000000000000000000000000000000000000000000000000060037f000000000000000000000000000000000000000000000000000000000000000060016040518663ffffffff1660e01b815260040161055095949392919061100e565b602060405180830381600087803b15801561056a57600080fd5b505af115801561057e573d6000803e3d6000fd5b505050506040513d601f19601f820116820180604052508101906105a29190610e28565b9050807ffd88a31c32406b28590b7ce7963258d44afe17df853230d7866b5ce79ba08cd160405160405180910390a250505050565b60008060009054906101000a900473ffffffffffffffffffffffffffffffffffffffff16905090565b6000600163ffffffff16905090565b6000600361ffff16905090565b600060606000600260009054906101000a900460ff16600181111561064457610643611356565b5b6000600181111561065857610657611356565b5b14905060008060018054905011905060007f0000000000000000000000000000000000000000000000000000000000000000600354426106989190611177565b119050600080471190508380156106ac5750815b80156106b55750825b80156106be5750805b955050505050915091565b7f0000000000000000000000000000000000000000000000000000000000000000341015610723576040517f4bcc525600000000000000000000000000000000000000000000000000000000815260040160405180910390fd5b6000600181111561073757610736611356565b5b600260009054906101000a900460ff16600181111561075957610758611356565b5b14610790576040517fb30eebe400000000000000000000000000000000000000000000000000000000815260040160405180910390fd5b6001339080600181540180825580915050600190039060005260206000200160009091909190916101000a81548173ffffffffffffffffffffffffffffffffffffffff021916908373ffffffffffffffffffffffffffffffffffffffff1602179055503373ffffffffffffffffffffffffffffffffffffffff167f1dcd09d5d34186d758ca3a0b597a773e80b5b1febddac88410eced5d743cc7f660405160405180910390a2565b60007f0000000000000000000000000000000000000000000000000000000000000000905090565b60007f0000000000000000000000000000000000000000000000000000000000000000905090565b60006001828154811061089e5761089d611385565b5b9060005260206000200160009054906101000a900473ffffffffffffffffffffffffffffffffffffffff169050919050565b6000600180549050905090565b6000600180549050826000815181106108f9576108f8611385565b5b602002602001015161090b91906112c7565b905060006001828154811061092357610922611385565b5b9060005260206000200160009054906101000a900473ffffffffffffffffffffffffffffffffffffffff169050806000806101000a81548173ffffffffffffffffffffffffffffffffffffffff021916908373ffffffffffffffffffffffffffffffffffffffff1602179055506000600260006101000a81548160ff021916908360018111156109b6576109b5611356565b5b0217905550600067ffffffffffffffff8111156109d6576109d56113b4565b5b604051908082528060200260200182016040528015610a045781602001602082028036833780820191505090505b5060019080519060200190610a1a929190610b30565b504260038190555060008060009054906101000a900473ffffffffffffffffffffffffffffffffffffffff1673ffffffffffffffffffffffffffffffffffffffff1647604051610a6990610f85565b60006040518083038185875af1925050503d8060008114610aa6576040519150601f19603f3d011682016040523d82523d6000602084013e610aab565b606091505b5050905080610ae6576040517f1d7da47900000000000000000000000000000000000000000000000000000000815260040160405180910390fd5b8173ffffffffffffffffffffffffffffffffffffffff167f5b690ec4a06fe979403046eaeea5b3ce38524683c3001f662c8b5a829632f7df60405160405180910390a25050505050565b828054828255906000526020600020908101928215610ba9579160200282015b82811115610ba85782518260006101000a81548173ffffffffffffffffffffffffffffffffffffffff021916908373ffffffffffffffffffffffffffffffffffffffff16021790555091602001919060010190610b50565b5b509050610bb69190610bba565b5090565b5b80821115610bd3576000816000905550600101610bbb565b5090565b6000610bea610be5846110f3565b6110ce565b90508083825260208201905082856020860282011115610c0d57610c0c6113ed565b5b60005b85811015610c3d5781610c238882610d3b565b845260208401935060208301925050600181019050610c10565b5050509392505050565b6000610c5a610c558461111f565b6110ce565b905082815260208101848484011115610c7657610c756113f2565b5b610c81848285611254565b509392505050565b600082601f830112610c9e57610c9d6113e8565b5b8135610cae848260208601610bd7565b91505092915050565b60008083601f840112610ccd57610ccc6113e8565b5b8235905067ffffffffffffffff811115610cea57610ce96113e3565b5b602083019150836001820283011115610d0657610d056113ed565b5b9250929050565b600082601f830112610d2257610d216113e8565b5b8135610d32848260208601610c47565b91505092915050565b600081359050610d4a81611429565b92915050565b600081519050610d5f81611429565b92915050565b60008060208385031215610d7c57610d7b6113fc565b5b600083013567ffffffffffffffff811115610d9a57610d996113f7565b5b610da685828601610cb7565b92509250509250929050565b600060208284031215610dc857610dc76113fc565b5b600082013567ffffffffffffffff811115610de657610de56113f7565b5b610df284828501610d0d565b91505092915050565b600060208284031215610e1157610e106113fc565b5b6000610e1f84828501610d3b565b91505092915050565b600060208284031215610e3e57610e3d6113fc565b5b6000610e4c84828501610d50565b91505092915050565b60008060408385031215610e6c57610e6b6113fc565b5b6000610e7a85828601610d3b565b925050602083013567ffffffffffffffff811115610e9b57610e9a6113f7565b5b610ea785828601610c89565b9150509250929050565b610eba816111ab565b82525050565b610ec9816111bd565b82525050565b610ed8816111c9565b82525050565b6000610ee982611150565b610ef3818561115b565b9350610f03818560208601611263565b610f0c81611401565b840191505092915050565b610f2081611242565b82525050565b6000610f3360008361116c565b9150610f3e82611412565b600082019050919050565b610f52816111e6565b82525050565b610f6181611214565b82525050565b610f708161121e565b82525050565b610f7f8161122e565b82525050565b6000610f9082610f26565b9150819050919050565b6000602082019050610faf6000830184610eb1565b92915050565b6000604082019050610fca6000830185610eb1565b610fd76020830184610eb1565b9392505050565b6000604082019050610ff36000830185610ec0565b81810360208301526110058184610ede565b90509392505050565b600060a0820190506110236000830188610ecf565b6110306020830187610f76565b61103d6040830186610f49565b61104a6060830185610f67565b6110576080830184610f67565b9695505050505050565b60006020820190506110766000830184610f17565b92915050565b60006020820190506110916000830184610f58565b92915050565b60006060820190506110ac6000830186610f58565b6110b96020830185610f58565b6110c66040830184610f58565b949350505050565b60006110d86110e9565b90506110e48282611296565b919050565b6000604051905090565b600067ffffffffffffffff82111561110e5761110d6113b4565b5b602082029050602081019050919050565b600067ffffffffffffffff82111561113a576111396113b4565b5b61114382611401565b9050602081019050919050565b600081519050919050565b600082825260208201905092915050565b600081905092915050565b600061118282611214565b915061118d83611214565b9250828210156111a05761119f6112f8565b5b828203905092915050565b60006111b6826111f4565b9050919050565b60008115159050919050565b6000819050919050565b60008190506111e182611415565b919050565b600061ffff82169050919050565b600073ffffffffffffffffffffffffffffffffffffffff82169050919050565b6000819050919050565b600063ffffffff82169050919050565b600067ffffffffffffffff82169050919050565b600061124d826111d3565b9050919050565b82818337600083830152505050565b60005b83811015611281578082015181840152602081019050611266565b83811115611290576000848401525b50505050565b61129f82611401565b810181811067ffffffffffffffff821117156112be576112bd6113b4565b5b80604052505050565b60006112d282611214565b91506112dd83611214565b9250826112ed576112ec611327565b5b828206905092915050565b7f4e487b7100000000000000000000000000000000000000000000000000000000600052601160045260246000fd5b7f4e487b7100000000000000000000000000000000000000000000000000000000600052601260045260246000fd5b7f4e487b7100000000000000000000000000000000000000000000000000000000600052602160045260246000fd5b7f4e487b7100000000000000000000000000000000000000000000000000000000600052603260045260246000fd5b7f4e487b7100000000000000000000000000000000000000000000000000000000600052604160045260246000fd5b600080fd5b600080fd5b600080fd5b600080fd5b600080fd5b600080fd5b6000601f19601f8301169050919050565b50565b6002811061142657611425611356565b5b50565b61143281611214565b811461143d57600080fd5b5056fea2646970667358221220e59935853244095c2b31414dce8fcbe7d3969cccde59175acc71c873e1c3fb0f64736f6c63430008070033",
  "devdoc": {
    "author": "Vignesh S",
    "details": "implements Chainlink VRF v2 and chainlink keepers",
    "kind": "dev",
    "methods": {
      "checkUpkeep(bytes)": {
        "details": "This is the function that the chainlink keepers call They look for the 'upkeepNeeded' to return true. The following should be true in order to return true  1. Our timme interval should have passed  2. There should be atleast 1 player in the lottery and have some Eth  3. Our subscription should be funded with ETH.  4. The lottery should be in \"open\" state .        (ie) we shouldnt be waiting for random number or anything at that time"
      }
    },
    "title": "Lotto Contract",
    "version": 1
  },
  "userdoc": {
    "kind": "user",
    "methods": {},
    "notice": "creating an untamperable decentralized smart contract",
    "version": 1
  },
  "storageLayout": {
    "storage": [
      {
        "astId": 885,
        "contract": "contracts/lotto.sol:lotto",
        "label": "s_recentWinner",
        "offset": 0,
        "slot": "0",
        "type": "t_address"
      },
      {
        "astId": 888,
        "contract": "contracts/lotto.sol:lotto",
        "label": "s_players",
        "offset": 0,
        "slot": "1",
        "type": "t_array(t_address_payable)dyn_storage"
      },
      {
        "astId": 891,
        "contract": "contracts/lotto.sol:lotto",
        "label": "s_lottoState",
        "offset": 0,
        "slot": "2",
        "type": "t_enum(LottoState)866"
      },
      {
        "astId": 893,
        "contract": "contracts/lotto.sol:lotto",
        "label": "s_lastTimeStamp",
        "offset": 0,
        "slot": "3",
        "type": "t_uint256"
      }
    ],
    "types": {
      "t_address": {
        "encoding": "inplace",
        "label": "address",
        "numberOfBytes": "20"
      },
      "t_address_payable": {
        "encoding": "inplace",
        "label": "address payable",
        "numberOfBytes": "20"
      },
      "t_array(t_address_payable)dyn_storage": {
        "base": "t_address_payable",
        "encoding": "dynamic_array",
        "label": "address payable[]",
        "numberOfBytes": "32"
      },
      "t_enum(LottoState)866": {
        "encoding": "inplace",
        "label": "enum lotto.LottoState",
        "numberOfBytes": "1"
      },
      "t_uint256": {
        "encoding": "inplace",
        "label": "uint256",
        "numberOfBytes": "32"
      }
    }
  }
}